{
  "_format": "hh-sol-artifact-1",
  "contractName": "VesterV2",
  "sourceName": "contracts/staking/VesterV2.sol",
  "abi": [
    {
      "inputs": [
        {
          "internalType": "string",
          "name": "_name",
          "type": "string"
        },
        {
          "internalType": "string",
          "name": "_symbol",
          "type": "string"
        },
        {
          "internalType": "address",
          "name": "_esToken",
          "type": "address"
        },
        {
          "internalType": "address",
          "name": "_pairToken",
          "type": "address"
        },
        {
          "internalType": "address",
          "name": "_claimableToken",
          "type": "address"
        },
        {
          "internalType": "address",
          "name": "_rewardTracker",
          "type": "address"
        }
      ],
      "stateMutability": "nonpayable",
      "type": "constructor"
    },
    {
      "anonymous": false,
      "inputs": [
        {
          "indexed": true,
          "internalType": "address",
          "name": "owner",
          "type": "address"
        },
        {
          "indexed": true,
          "internalType": "address",
          "name": "spender",
          "type": "address"
        },
        {
          "indexed": false,
          "internalType": "uint256",
          "name": "value",
          "type": "uint256"
        }
      ],
      "name": "Approval",
      "type": "event"
    },
    {
      "anonymous": false,
      "inputs": [
        {
          "indexed": false,
          "internalType": "address",
          "name": "receiver",
          "type": "address"
        },
        {
          "indexed": false,
          "internalType": "uint256",
          "name": "amount",
          "type": "uint256"
        }
      ],
      "name": "Claim",
      "type": "event"
    },
    {
      "anonymous": false,
      "inputs": [
        {
          "indexed": false,
          "internalType": "address",
          "name": "account",
          "type": "address"
        },
        {
          "indexed": false,
          "internalType": "uint256",
          "name": "amount",
          "type": "uint256"
        }
      ],
      "name": "Deposit",
      "type": "event"
    },
    {
      "anonymous": false,
      "inputs": [
        {
          "indexed": true,
          "internalType": "address",
          "name": "from",
          "type": "address"
        },
        {
          "indexed": true,
          "internalType": "address",
          "name": "to",
          "type": "address"
        },
        {
          "indexed": false,
          "internalType": "uint256",
          "name": "value",
          "type": "uint256"
        }
      ],
      "name": "PairTransfer",
      "type": "event"
    },
    {
      "anonymous": false,
      "inputs": [
        {
          "indexed": true,
          "internalType": "address",
          "name": "from",
          "type": "address"
        },
        {
          "indexed": true,
          "internalType": "address",
          "name": "to",
          "type": "address"
        },
        {
          "indexed": false,
          "internalType": "uint256",
          "name": "value",
          "type": "uint256"
        }
      ],
      "name": "Transfer",
      "type": "event"
    },
    {
      "anonymous": false,
      "inputs": [
        {
          "indexed": false,
          "internalType": "address",
          "name": "account",
          "type": "address"
        },
        {
          "indexed": false,
          "internalType": "uint256",
          "name": "claimedAmount",
          "type": "uint256"
        },
        {
          "indexed": false,
          "internalType": "uint256",
          "name": "balance",
          "type": "uint256"
        }
      ],
      "name": "Withdraw",
      "type": "event"
    },
    {
      "inputs": [],
      "name": "VEST_INTERVAL",
      "outputs": [
        {
          "internalType": "uint256",
          "name": "",
          "type": "uint256"
        }
      ],
      "stateMutability": "view",
      "type": "function"
    },
    {
      "inputs": [
        {
          "internalType": "address",
          "name": "",
          "type": "address"
        },
        {
          "internalType": "address",
          "name": "",
          "type": "address"
        }
      ],
      "name": "allowance",
      "outputs": [
        {
          "internalType": "uint256",
          "name": "",
          "type": "uint256"
        }
      ],
      "stateMutability": "view",
      "type": "function"
    },
    {
      "inputs": [
        {
          "internalType": "address",
          "name": "",
          "type": "address"
        },
        {
          "internalType": "uint256",
          "name": "",
          "type": "uint256"
        }
      ],
      "name": "approve",
      "outputs": [
        {
          "internalType": "bool",
          "name": "",
          "type": "bool"
        }
      ],
      "stateMutability": "nonpayable",
      "type": "function"
    },
    {
      "inputs": [
        {
          "internalType": "address",
          "name": "_account",
          "type": "address"
        }
      ],
      "name": "balanceOf",
      "outputs": [
        {
          "internalType": "uint256",
          "name": "",
          "type": "uint256"
        }
      ],
      "stateMutability": "view",
      "type": "function"
    },
    {
      "inputs": [
        {
          "internalType": "address",
          "name": "",
          "type": "address"
        }
      ],
      "name": "balances",
      "outputs": [
        {
          "internalType": "uint256",
          "name": "",
          "type": "uint256"
        }
      ],
      "stateMutability": "view",
      "type": "function"
    },
    {
      "inputs": [
        {
          "internalType": "address",
          "name": "",
          "type": "address"
        }
      ],
      "name": "bonusRewards",
      "outputs": [
        {
          "internalType": "uint256",
          "name": "",
          "type": "uint256"
        }
      ],
      "stateMutability": "view",
      "type": "function"
    },
    {
      "inputs": [],
      "name": "claim",
      "outputs": [
        {
          "internalType": "uint256",
          "name": "",
          "type": "uint256"
        }
      ],
      "stateMutability": "nonpayable",
      "type": "function"
    },
    {
      "inputs": [
        {
          "internalType": "address",
          "name": "_account",
          "type": "address"
        },
        {
          "internalType": "address",
          "name": "_receiver",
          "type": "address"
        }
      ],
      "name": "claimForAccount",
      "outputs": [
        {
          "internalType": "uint256",
          "name": "",
          "type": "uint256"
        }
      ],
      "stateMutability": "nonpayable",
      "type": "function"
    },
    {
      "inputs": [
        {
          "internalType": "address",
          "name": "_account",
          "type": "address"
        }
      ],
      "name": "claimable",
      "outputs": [
        {
          "internalType": "uint256",
          "name": "",
          "type": "uint256"
        }
      ],
      "stateMutability": "view",
      "type": "function"
    },
    {
      "inputs": [],
      "name": "claimableToken",
      "outputs": [
        {
          "internalType": "address",
          "name": "",
          "type": "address"
        }
      ],
      "stateMutability": "view",
      "type": "function"
    },
    {
      "inputs": [
        {
          "internalType": "address",
          "name": "",
          "type": "address"
        }
      ],
      "name": "claimedAmounts",
      "outputs": [
        {
          "internalType": "uint256",
          "name": "",
          "type": "uint256"
        }
      ],
      "stateMutability": "view",
      "type": "function"
    },
    {
      "inputs": [
        {
          "internalType": "address",
          "name": "",
          "type": "address"
        }
      ],
      "name": "cumulativeClaimAmounts",
      "outputs": [
        {
          "internalType": "uint256",
          "name": "",
          "type": "uint256"
        }
      ],
      "stateMutability": "view",
      "type": "function"
    },
    {
      "inputs": [
        {
          "internalType": "address",
          "name": "",
          "type": "address"
        }
      ],
      "name": "cumulativeRewardDeductions",
      "outputs": [
        {
          "internalType": "uint256",
          "name": "",
          "type": "uint256"
        }
      ],
      "stateMutability": "view",
      "type": "function"
    },
    {
      "inputs": [],
      "name": "decimals",
      "outputs": [
        {
          "internalType": "uint8",
          "name": "",
          "type": "uint8"
        }
      ],
      "stateMutability": "view",
      "type": "function"
    },
    {
      "inputs": [
        {
          "internalType": "uint256",
          "name": "_amount",
          "type": "uint256"
        },
        {
          "internalType": "uint256",
          "name": "_months",
          "type": "uint256"
        }
      ],
      "name": "deposit",
      "outputs": [],
      "stateMutability": "nonpayable",
      "type": "function"
    },
    {
      "inputs": [
        {
          "internalType": "address",
          "name": "_account",
          "type": "address"
        },
        {
          "internalType": "uint256",
          "name": "_amount",
          "type": "uint256"
        },
        {
          "internalType": "uint256",
          "name": "_months",
          "type": "uint256"
        }
      ],
      "name": "depositForAccount",
      "outputs": [],
      "stateMutability": "nonpayable",
      "type": "function"
    },
    {
      "inputs": [],
      "name": "esToken",
      "outputs": [
        {
          "internalType": "address",
          "name": "",
          "type": "address"
        }
      ],
      "stateMutability": "view",
      "type": "function"
    },
    {
      "inputs": [
        {
          "internalType": "address",
          "name": "_account",
          "type": "address"
        }
      ],
      "name": "getCombinedAverageStakedAmount",
      "outputs": [
        {
          "internalType": "uint256",
          "name": "",
          "type": "uint256"
        }
      ],
      "stateMutability": "view",
      "type": "function"
    },
    {
      "inputs": [
        {
          "internalType": "address",
          "name": "_account",
          "type": "address"
        }
      ],
      "name": "getMaxVestableAmount",
      "outputs": [
        {
          "internalType": "uint256",
          "name": "",
          "type": "uint256"
        }
      ],
      "stateMutability": "view",
      "type": "function"
    },
    {
      "inputs": [
        {
          "internalType": "address",
          "name": "_account",
          "type": "address"
        },
        {
          "internalType": "uint256",
          "name": "_esAmount",
          "type": "uint256"
        }
      ],
      "name": "getPairAmount",
      "outputs": [
        {
          "internalType": "uint256",
          "name": "",
          "type": "uint256"
        }
      ],
      "stateMutability": "view",
      "type": "function"
    },
    {
      "inputs": [
        {
          "internalType": "address",
          "name": "_account",
          "type": "address"
        }
      ],
      "name": "getTotalVested",
      "outputs": [
        {
          "internalType": "uint256",
          "name": "",
          "type": "uint256"
        }
      ],
      "stateMutability": "view",
      "type": "function"
    },
    {
      "inputs": [
        {
          "internalType": "address",
          "name": "_account",
          "type": "address"
        }
      ],
      "name": "getVestedAmount",
      "outputs": [
        {
          "internalType": "uint256",
          "name": "",
          "type": "uint256"
        }
      ],
      "stateMutability": "view",
      "type": "function"
    },
    {
      "inputs": [],
      "name": "gov",
      "outputs": [
        {
          "internalType": "address",
          "name": "",
          "type": "address"
        }
      ],
      "stateMutability": "view",
      "type": "function"
    },
    {
      "inputs": [],
      "name": "hasMaxVestableAmount",
      "outputs": [
        {
          "internalType": "bool",
          "name": "",
          "type": "bool"
        }
      ],
      "stateMutability": "view",
      "type": "function"
    },
    {
      "inputs": [],
      "name": "hasPairToken",
      "outputs": [
        {
          "internalType": "bool",
          "name": "",
          "type": "bool"
        }
      ],
      "stateMutability": "view",
      "type": "function"
    },
    {
      "inputs": [],
      "name": "hasRewardTracker",
      "outputs": [
        {
          "internalType": "bool",
          "name": "",
          "type": "bool"
        }
      ],
      "stateMutability": "view",
      "type": "function"
    },
    {
      "inputs": [
        {
          "internalType": "address",
          "name": "",
          "type": "address"
        }
      ],
      "name": "isHandler",
      "outputs": [
        {
          "internalType": "bool",
          "name": "",
          "type": "bool"
        }
      ],
      "stateMutability": "view",
      "type": "function"
    },
    {
      "inputs": [
        {
          "internalType": "address",
          "name": "",
          "type": "address"
        }
      ],
      "name": "lastVestingTimes",
      "outputs": [
        {
          "internalType": "uint256",
          "name": "",
          "type": "uint256"
        }
      ],
      "stateMutability": "view",
      "type": "function"
    },
    {
      "inputs": [],
      "name": "name",
      "outputs": [
        {
          "internalType": "string",
          "name": "",
          "type": "string"
        }
      ],
      "stateMutability": "view",
      "type": "function"
    },
    {
      "inputs": [
        {
          "internalType": "address",
          "name": "",
          "type": "address"
        }
      ],
      "name": "pairAmounts",
      "outputs": [
        {
          "internalType": "uint256",
          "name": "",
          "type": "uint256"
        }
      ],
      "stateMutability": "view",
      "type": "function"
    },
    {
      "inputs": [],
      "name": "pairSupply",
      "outputs": [
        {
          "internalType": "uint256",
          "name": "",
          "type": "uint256"
        }
      ],
      "stateMutability": "view",
      "type": "function"
    },
    {
      "inputs": [],
      "name": "pairToken",
      "outputs": [
        {
          "internalType": "address",
          "name": "",
          "type": "address"
        }
      ],
      "stateMutability": "view",
      "type": "function"
    },
    {
      "inputs": [],
      "name": "rewardTracker",
      "outputs": [
        {
          "internalType": "address",
          "name": "",
          "type": "address"
        }
      ],
      "stateMutability": "view",
      "type": "function"
    },
    {
      "inputs": [
        {
          "internalType": "address",
          "name": "_account",
          "type": "address"
        },
        {
          "internalType": "uint256",
          "name": "_amount",
          "type": "uint256"
        }
      ],
      "name": "setBonusRewards",
      "outputs": [],
      "stateMutability": "nonpayable",
      "type": "function"
    },
    {
      "inputs": [
        {
          "internalType": "address",
          "name": "_account",
          "type": "address"
        },
        {
          "internalType": "uint256",
          "name": "_amount",
          "type": "uint256"
        }
      ],
      "name": "setCumulativeRewardDeductions",
      "outputs": [],
      "stateMutability": "nonpayable",
      "type": "function"
    },
    {
      "inputs": [
        {
          "internalType": "address",
          "name": "_gov",
          "type": "address"
        }
      ],
      "name": "setGov",
      "outputs": [],
      "stateMutability": "nonpayable",
      "type": "function"
    },
    {
      "inputs": [
        {
          "internalType": "address",
          "name": "_handler",
          "type": "address"
        },
        {
          "internalType": "bool",
          "name": "_isActive",
          "type": "bool"
        }
      ],
      "name": "setHandler",
      "outputs": [],
      "stateMutability": "nonpayable",
      "type": "function"
    },
    {
      "inputs": [
        {
          "internalType": "bool",
          "name": "_hasMaxVestableAmount",
          "type": "bool"
        }
      ],
      "name": "setHasMaxVestableAmount",
      "outputs": [],
      "stateMutability": "nonpayable",
      "type": "function"
    },
    {
      "inputs": [
        {
          "internalType": "address",
          "name": "_account",
          "type": "address"
        },
        {
          "internalType": "uint256",
          "name": "_amount",
          "type": "uint256"
        }
      ],
      "name": "setTransferredAverageStakedAmounts",
      "outputs": [],
      "stateMutability": "nonpayable",
      "type": "function"
    },
    {
      "inputs": [
        {
          "internalType": "address",
          "name": "_account",
          "type": "address"
        },
        {
          "internalType": "uint256",
          "name": "_amount",
          "type": "uint256"
        }
      ],
      "name": "setTransferredCumulativeRewards",
      "outputs": [],
      "stateMutability": "nonpayable",
      "type": "function"
    },
    {
      "inputs": [],
      "name": "symbol",
      "outputs": [
        {
          "internalType": "string",
          "name": "",
          "type": "string"
        }
      ],
      "stateMutability": "view",
      "type": "function"
    },
    {
      "inputs": [],
      "name": "totalSupply",
      "outputs": [
        {
          "internalType": "uint256",
          "name": "",
          "type": "uint256"
        }
      ],
      "stateMutability": "view",
      "type": "function"
    },
    {
      "inputs": [
        {
          "internalType": "address",
          "name": "",
          "type": "address"
        },
        {
          "internalType": "uint256",
          "name": "",
          "type": "uint256"
        }
      ],
      "name": "transfer",
      "outputs": [
        {
          "internalType": "bool",
          "name": "",
          "type": "bool"
        }
      ],
      "stateMutability": "nonpayable",
      "type": "function"
    },
    {
      "inputs": [
        {
          "internalType": "address",
          "name": "",
          "type": "address"
        },
        {
          "internalType": "address",
          "name": "",
          "type": "address"
        },
        {
          "internalType": "uint256",
          "name": "",
          "type": "uint256"
        }
      ],
      "name": "transferFrom",
      "outputs": [
        {
          "internalType": "bool",
          "name": "",
          "type": "bool"
        }
      ],
      "stateMutability": "nonpayable",
      "type": "function"
    },
    {
      "inputs": [
        {
          "internalType": "address",
          "name": "_sender",
          "type": "address"
        },
        {
          "internalType": "address",
          "name": "_receiver",
          "type": "address"
        }
      ],
      "name": "transferStakeValues",
      "outputs": [],
      "stateMutability": "nonpayable",
      "type": "function"
    },
    {
      "inputs": [
        {
          "internalType": "address",
          "name": "",
          "type": "address"
        }
      ],
      "name": "transferredAverageStakedAmounts",
      "outputs": [
        {
          "internalType": "uint256",
          "name": "",
          "type": "uint256"
        }
      ],
      "stateMutability": "view",
      "type": "function"
    },
    {
      "inputs": [
        {
          "internalType": "address",
          "name": "",
          "type": "address"
        }
      ],
      "name": "transferredCumulativeRewards",
      "outputs": [
        {
          "internalType": "uint256",
          "name": "",
          "type": "uint256"
        }
      ],
      "stateMutability": "view",
      "type": "function"
    },
    {
      "inputs": [
        {
          "internalType": "address",
          "name": "",
          "type": "address"
        }
      ],
      "name": "vestingDurations",
      "outputs": [
        {
          "internalType": "uint256",
          "name": "",
          "type": "uint256"
        }
      ],
      "stateMutability": "view",
      "type": "function"
    },
    {
      "inputs": [],
      "name": "withdraw",
      "outputs": [],
      "stateMutability": "nonpayable",
      "type": "function"
    },
    {
      "inputs": [
        {
          "internalType": "address",
          "name": "_token",
          "type": "address"
        },
        {
          "internalType": "address",
          "name": "_account",
          "type": "address"
        },
        {
          "internalType": "uint256",
          "name": "_amount",
          "type": "uint256"
        }
      ],
      "name": "withdrawToken",
      "outputs": [],
      "stateMutability": "nonpayable",
      "type": "function"
    }
  ],
  "bytecode": "0x60806040526004805460ff1916601217905562278d006005553480156200002557600080fd5b506040516200294338038062002943833981810160405260c08110156200004b57600080fd5b81019080805160405193929190846401000000008211156200006c57600080fd5b9083019060208201858111156200008257600080fd5b82516401000000008111828201881017156200009d57600080fd5b82525081516020918201929091019080838360005b83811015620000cc578181015183820152602001620000b2565b50505050905090810190601f168015620000fa5780820380516001836020036101000a031916815260200191505b50604052602001805160405193929190846401000000008211156200011e57600080fd5b9083019060208201858111156200013457600080fd5b82516401000000008111828201881017156200014f57600080fd5b82525081516020918201929091019080838360005b838110156200017e57818101518382015260200162000164565b50505050905090810190601f168015620001ac5780820380516001836020036101000a031916815260200191505b5060409081526020828101519183015160608401516080909401516001600081905580546001600160a01b03191633179055885193965090945091620001f991600291908901906200027a565b5084516200020f9060039060208801906200027a565b50600680546001600160a01b03199081166001600160a01b038781169190911790925560078054821686841617905560088054821685841617905560098054909116838316179081905516156200026e57600c805460ff191660011790555b50505050505062000316565b828054600181600116156101000203166002900490600052602060002090601f016020900481019282601f10620002bd57805160ff1916838001178555620002ed565b82800160010185558215620002ed579182015b82811115620002ed578251825591602001919060010190620002d0565b50620002fb929150620002ff565b5090565b5b80821115620002fb576000815560010162000300565b61261d80620003266000396000f3fe608060405234801561001057600080fd5b50600436106102465760003560e01c806301e336671461024b57806306fdde031461028357806308f26c7614610300578063095ea7b3146103385780630db9ea4a1461037857806312d43a511461039e57806313e82e7a146103c257806315e90a41146103f057806316ca05c5146103f857806318160ddd1461040057806323b872dd1461040857806327e235e31461043e578063313ce56714610464578063387a785d146104825780633ccfd60b146104a85780633de35b79146104b0578063402914f5146104b857806341f22724146104de57806345f01ee61461050a57806346ea87af146105305780634e71d92d146105565780635d50e7291461055e57806369de9b93146105845780636bcb411a146105a35780636db64d06146105ab57806370a08231146105dd57806371417b32146106035780637337035c146106295780637cf8f3b21461064f578063930354731461067b57806395d89b41146106a15780639cb7de4b146106a9578063a2545fa5146106d7578063a9059cbb14610338578063a96edee4146106fd578063acf077a514610705578063b5ff136d1461070d578063b71bce2a14610733578063cfad57a214610759578063d0b038b71461077f578063d5a73fdd146107ab578063d75abb57146107d1578063d89b7007146107d9578063dd62ed3e14610805578063e2bbb15814610833578063e3ecc4b214610856578063e75e58ba14610882578063f421f62a146108a8578063f6d6d5aa146108b0578063f713c230146108b8575b600080fd5b6102816004803603606081101561026157600080fd5b506001600160a01b038135811691602081013590911690604001356108e6565b005b61028b61094c565b6040805160208082528351818301528351919283929083019185019080838360005b838110156102c55781810151838201526020016102ad565b50505050905090810190601f1680156102f25780820380516001836020036101000a031916815260200191505b509250505060405180910390f35b6103266004803603602081101561031657600080fd5b50356001600160a01b03166109d7565b60408051918252519081900360200190f35b6103646004803603604081101561034e57600080fd5b506001600160a01b038135169060200135610ae0565b604080519115158252519081900360200190f35b6103266004803603602081101561038e57600080fd5b50356001600160a01b0316610b2b565b6103a6610b3d565b604080516001600160a01b039092168252519081900360200190f35b610326600480360360408110156103d857600080fd5b506001600160a01b0381358116916020013516610b4c565b610326610bb7565b6103a6610bbd565b610326610bcc565b6103646004803603606081101561041e57600080fd5b506001600160a01b03813581169160208101359091169060400135610ae0565b6103266004803603602081101561045457600080fd5b50356001600160a01b0316610bd2565b61046c610be4565b6040805160ff9092168252519081900360200190f35b6103266004803603602081101561049857600080fd5b50356001600160a01b0316610bed565b610281610bff565b6103a6610dc2565b610326600480360360208110156104ce57600080fd5b50356001600160a01b0316610dd1565b610281600480360360408110156104f457600080fd5b506001600160a01b038135169060200135610e23565b6103266004803603602081101561052057600080fd5b50356001600160a01b0316610e99565b6103646004803603602081101561054657600080fd5b50356001600160a01b031661100b565b610326611020565b6103266004803603602081101561057457600080fd5b50356001600160a01b0316611081565b6102816004803603602081101561059a57600080fd5b50351515611093565b6103a66110f3565b610281600480360360608110156105c157600080fd5b506001600160a01b038135169060208101359060400135611102565b610326600480360360208110156105f357600080fd5b50356001600160a01b031661116a565b6103266004803603602081101561061957600080fd5b50356001600160a01b0316611185565b6103266004803603602081101561063f57600080fd5b50356001600160a01b0316611197565b6103266004803603604081101561066557600080fd5b506001600160a01b0381351690602001356111a9565b6103266004803603602081101561069157600080fd5b50356001600160a01b0316611211565b61028b61123e565b610281600480360360408110156106bf57600080fd5b506001600160a01b0381351690602001351515611299565b610326600480360360208110156106ed57600080fd5b50356001600160a01b0316611311565b610326611323565b610364611329565b6103266004803603602081101561072357600080fd5b50356001600160a01b0316611332565b6103266004803603602081101561074957600080fd5b50356001600160a01b0316611344565b6102816004803603602081101561076f57600080fd5b50356001600160a01b0316611356565b6102816004803603604081101561079557600080fd5b506001600160a01b0381351690602001356113c5565b610326600480360360208110156107c157600080fd5b50356001600160a01b031661143b565b610364611469565b610281600480360360408110156107ef57600080fd5b506001600160a01b03813516906020013561147a565b6103266004803603604081101561081b57600080fd5b506001600160a01b03813581169160200135166114f0565b6102816004803603604081101561084957600080fd5b50803590602001356114f8565b6102816004803603604081101561086c57600080fd5b506001600160a01b038135169060200135611557565b6103266004803603602081101561089857600080fd5b50356001600160a01b03166115cd565b6103646115df565b6103a66115f0565b610281600480360360408110156108ce57600080fd5b506001600160a01b03813581169160200135166115ff565b6001546001600160a01b03163314610933576040805162461bcd60e51b815260206004820152601560248201526000805160206124b4833981519152604482015290519081900360640190fd5b6109476001600160a01b0384168383611768565b505050565b6002805460408051602060018416156101000260001901909316849004601f810184900484028201840190925281815292918301828280156109cf5780601f106109a4576101008083540402835291602001916109cf565b820191906000526020600020905b8154815290600101906020018083116109b257829003601f168201915b505050505081565b60006109e16115df565b6109ed57506000610adb565b6001600160a01b0380831660008181526014602090815260408083205460168352818420546009548351633792def360e01b81526004810197909752925191969095921692633792def39260248082019391829003018186803b158015610a5357600080fd5b505afa158015610a67573d6000803e3d6000fd5b505050506040513d6020811015610a7d57600080fd5b505190506000610a9783610a9184876117ba565b906117ba565b6001600160a01b03871660009081526015602052604090205490915080821015610ac957600095505050505050610adb565b610ad38282611819565b955050505050505b919050565b6040805162461bcd60e51b81526020600482015260196024820152785665737465723a206e6f6e2d7472616e736665727261626c6560381b6044820152905160009181900360640190fd5b60116020526000908152604090205481565b6001546001600160a01b031681565b600060026000541415610b94576040805162461bcd60e51b815260206004820152601f6024820152600080516020612494833981519152604482015290519081900360640190fd5b6002600055610ba161185b565b610bab83836118b5565b60016000559392505050565b600b5481565b6006546001600160a01b031681565b600a5481565b600d6020526000908152604090205481565b60045460ff1681565b60156020526000908152604090205481565b60026000541415610c45576040805162461bcd60e51b815260206004820152601f6024820152600080516020612494833981519152604482015290519081900360640190fd5b60026000553380610c5681806118b5565b506001600160a01b0382166000908152600f6020908152604080832054600d9092528220549091610c8782846117ba565b905060008111610cde576040805162461bcd60e51b815260206004820152601d60248201527f5665737465723a2076657374656420616d6f756e74206973207a65726f000000604482015290519081900360640190fd5b610ce6611469565b15610d27576001600160a01b0385166000908152600e6020526040902054610d0e8682611968565b600754610d25906001600160a01b03168683611768565b505b600654610d3e906001600160a01b03168584611768565b610d488583611a46565b6001600160a01b0385166000818152600f6020908152604080832083905560108252808320839055601182528083209290925581519283528201859052818101849052517ff279e6a1f5e320cca91135676d9cb6e44ca8a08c0b88342bcdb1144f6511b5689181900360600190a150506001600055505050565b6007546001600160a01b031681565b6001600160a01b038116600090815260106020908152604080832054600f9092528220548291610e019190611819565b90506000610e0e84611b24565b509050610e1b82826117ba565b949350505050565b60026000541415610e69576040805162461bcd60e51b815260206004820152601f6024820152600080516020612494833981519152604482015290519081900360640190fd5b6002600055610e7661185b565b6001600160a01b0390911660009081526016602052604081209190915560019055565b60095460408051633792def360e01b81526001600160a01b038481166004830152915160009384931691633792def3916024808301926020929190829003018186803b158015610ee857600080fd5b505afa158015610efc573d6000803e3d6000fd5b505050506040513d6020811015610f1257600080fd5b50516001600160a01b038416600090815260146020526040812054919250610f3a83836117ba565b905080610f4d5760009350505050610adb565b6009546040805163a318021760e01b81526001600160a01b0388811660048301529151600093929092169163a318021791602480820192602092909190829003018186803b158015610f9e57600080fd5b505afa158015610fb2573d6000803e3d6000fd5b505050506040513d6020811015610fc857600080fd5b50516001600160a01b038716600090815260136020526040902054909150610ad3610ffd84610ff78488611bdf565b90611c38565b610a9185610ff7868a611bdf565b60176020526000908152604090205460ff1681565b600060026000541415611068576040805162461bcd60e51b815260206004820152601f6024820152600080516020612494833981519152604482015290519081900360640190fd5b600260005561107733806118b5565b9050600160005590565b600e6020526000908152604090205481565b6001546001600160a01b031633146110e0576040805162461bcd60e51b815260206004820152601560248201526000805160206124b4833981519152604482015290519081900360640190fd5b600c805460ff1916911515919091179055565b6009546001600160a01b031681565b60026000541415611148576040805162461bcd60e51b815260206004820152601f6024820152600080516020612494833981519152604482015290519081900360640190fd5b600260005561115561185b565b611160838383611c77565b5050600160005550565b6001600160a01b03166000908152600d602052604090205490565b60106020526000908152604090205481565b60136020526000908152604090205481565b60006111b36115df565b6111bf5750600061120b565b60006111ca84610e99565b9050806111db57600091505061120b565b60006111e6856109d7565b9050806111f85760009250505061120b565b61120681610ff78685611bdf565b925050505b92915050565b6001600160a01b0381166000908152600f6020908152604080832054600d90925282205461120b916117ba565b6003805460408051602060026001851615610100026000190190941693909304601f810184900484028201840190925281815292918301828280156109cf5780601f106109a4576101008083540402835291602001916109cf565b6001546001600160a01b031633146112e6576040805162461bcd60e51b815260206004820152601560248201526000805160206124b4833981519152604482015290519081900360640190fd5b6001600160a01b03919091166000908152601760205260409020805460ff1916911515919091179055565b60166020526000908152604090205481565b60055481565b600c5460ff1681565b600f6020526000908152604090205481565b60146020526000908152604090205481565b6001546001600160a01b031633146113a3576040805162461bcd60e51b815260206004820152601560248201526000805160206124b4833981519152604482015290519081900360640190fd5b600180546001600160a01b0319166001600160a01b0392909216919091179055565b6002600054141561140b576040805162461bcd60e51b815260206004820152601f6024820152600080516020612494833981519152604482015290519081900360640190fd5b600260005561141861185b565b6001600160a01b0390911660009081526014602052604081209190915560019055565b6001600160a01b0381166000908152600d6020908152604080832054600f909252822054610e1b82826117ba565b6007546001600160a01b0316151590565b600260005414156114c0576040805162461bcd60e51b815260206004820152601f6024820152600080516020612494833981519152604482015290519081900360640190fd5b60026000556114cd61185b565b6001600160a01b0390911660009081526015602052604081209190915560019055565b600092915050565b6002600054141561153e576040805162461bcd60e51b815260206004820152601f6024820152600080516020612494833981519152604482015290519081900360640190fd5b600260005561154e338383611c77565b50506001600055565b6002600054141561159d576040805162461bcd60e51b815260206004820152601f6024820152600080516020612494833981519152604482015290519081900360640190fd5b60026000556115aa61185b565b6001600160a01b0390911660009081526013602052604081209190915560019055565b60126020526000908152604090205481565b6009546001600160a01b0316151590565b6008546001600160a01b031681565b60026000541415611645576040805162461bcd60e51b815260206004820152601f6024820152600080516020612494833981519152604482015290519081900360640190fd5b600260005561165261185b565b61165b82610e99565b6001600160a01b0380831660009081526013602090815260408083209490945585831680835284832083905560148252848320546009548651633792def360e01b815260048101939093529551909593949390931692633792def392602480840193919291829003018186803b1580156116d457600080fd5b505afa1580156116e8573d6000803e3d6000fd5b505050506040513d60208110156116fe57600080fd5b5051905061170c82826117ba565b6001600160a01b0393841660008181526014602081815260408084209590955597909616808252601588528382209490945594865281852085905560169095528084208054958552908420949094558252509081905560019055565b604080516001600160a01b038416602482015260448082018490528251808303909101815260649091019091526020810180516001600160e01b031663a9059cbb60e01b179052610947908490611e8c565b600082820183811015611812576040805162461bcd60e51b815260206004820152601b60248201527a536166654d6174683a206164646974696f6e206f766572666c6f7760281b604482015290519081900360640190fd5b9392505050565b600061181283836040518060400160405280601e81526020017f536166654d6174683a207375627472616374696f6e206f766572666c6f770000815250611f3d565b3360009081526017602052604090205460ff166118b3576040805162461bcd60e51b81526020600482015260116024820152702b32b9ba32b91d103337b93134b23232b760791b604482015290519081900360640190fd5b565b60006118c083611fd4565b60006118cb84610dd1565b6001600160a01b0385166000908152601060205260409020549091506118f190826117ba565b6001600160a01b0380861660009081526010602052604090209190915560085461191d91168483611768565b604080516001600160a01b03861681526020810183905281517f47cee97cb7acd717b3c0aa1435d004cd5b3c8c57d70dbceb4e4458bbd60e39d4929181900390910190a19392505050565b6001600160a01b0382166119ad5760405162461bcd60e51b81526004018080602001828103825260228152602001806124f76022913960400191505060405180910390fd5b6119ea816040518060600160405280602381526020016124d4602391396001600160a01b0385166000908152600e60205260409020549190611f3d565b6001600160a01b0383166000908152600e6020526040902055600b54611a109082611819565b600b556040805182815290516000916001600160a01b038516916000805160206125c88339815191529181900360200190a35050565b6001600160a01b038216611a8b5760405162461bcd60e51b81526004018080602001828103825260228152602001806124f76022913960400191505060405180910390fd5b611ac8816040518060600160405280602381526020016124d4602391396001600160a01b0385166000908152600d60205260409020549190611f3d565b6001600160a01b0383166000908152600d6020526040902055600a54611aee9082611819565b600a556040805182815290516000916001600160a01b0385169160008051602061255e8339815191529181900360200190a35050565b6001600160a01b03811660009081526011602052604081205481908190611b4c904290611819565b6001600160a01b0385166000908152600d6020526040902054925090508115611bd9576000611b7a8561143b565b6001600160a01b038616600090815260126020526040902054909150808310611ba557809250611bb6565b611bb381610ff78686611bdf565b93505b8015611bd257600554611bcd90610ff78486611bdf565b611bd4565b815b945050505b50915091565b600082611bee5750600061120b565b82820282848281611bfb57fe5b04146118125760405162461bcd60e51b81526004018080602001828103825260218152602001806125196021913960400191505060405180910390fd5b600061181283836040518060400160405280601a815260200179536166654d6174683a206469766973696f6e206279207a65726f60301b8152506120b8565b60008211611cc6576040805162461bcd60e51b815260206004820152601760248201527615995cdd195c8e881a5b9d985b1a590817d85b5bdd5b9d604a1b604482015290519081900360640190fd5b600c811115611d15576040805162461bcd60e51b81526020600482015260166024820152755665737465723a20696e76616c6964206d6f6e74687360501b604482015290519081900360640190fd5b611d1e83611fd4565b600554611d2c908290611bdf565b6001600160a01b03808516600090815260126020526040902091909155600654611d59911684308561211d565b611d63838361217d565b611d6b611469565b15611de2576001600160a01b0383166000908152600e6020908152604080832054600d909252822054909190611da29086906111a9565b905081811115611ddf576000611db88284611819565b600754909150611dd3906001600160a01b031687308461211d565b611ddd868261223f565b505b50505b600c5460ff1615611e43576000611df8846109d7565b905080611e0485611211565b1115611e415760405162461bcd60e51b815260040180806020018281038252602481526020018061253a6024913960400191505060405180910390fd5b505b604080516001600160a01b03851681526020810184905281517fe1fffcc4923d04b559f4d29a8bfc6cda04eb5b0d3c460751c2402c5c5cc9109c929181900390910190a1505050565b6060611ee1826040518060400160405280602081526020017f5361666545524332303a206c6f772d6c6576656c2063616c6c206661696c6564815250856001600160a01b03166123019092919063ffffffff16565b80519091501561094757808060200190516020811015611f0057600080fd5b50516109475760405162461bcd60e51b815260040180806020018281038252602a81526020018061259e602a913960400191505060405180910390fd5b60008184841115611fcc5760405162461bcd60e51b81526004018080602001828103825283818151815260200191508051906020019080838360005b83811015611f91578181015183820152602001611f79565b50505050905090810190601f168015611fbe5780820380516001836020036101000a031916815260200191505b509250505060405180910390fd5b505050900390565b600080611fe083611b24565b6001600160a01b038516600090815260116020526040902042905590925090508061200c5750506120b5565b6120168382611a46565b6001600160a01b0383166000908152600f602052604090205461203990836117ba565b6001600160a01b038085166000908152600f6020526040808220939093556006548351632770a7eb60e21b8152306004820152602481018690529351921692639dc29fac926044808301939282900301818387803b15801561209a57600080fd5b505af11580156120ae573d6000803e3d6000fd5b5050505050505b50565b600081836121075760405162461bcd60e51b8152602060048201818152835160248401528351909283926044909101919085019080838360008315611f91578181015183820152602001611f79565b50600083858161211357fe5b0495945050505050565b604080516001600160a01b0380861660248301528416604482015260648082018490528251808303909101815260849091019091526020810180516001600160e01b03166323b872dd60e01b179052612177908590611e8c565b50505050565b6001600160a01b0382166121c6576040805162461bcd60e51b8152602060048201819052602482015260008051602061257e833981519152604482015290519081900360640190fd5b600a546121d390826117ba565b600a556001600160a01b0382166000908152600d60205260409020546121f990826117ba565b6001600160a01b0383166000818152600d6020908152604080832094909455835185815293519293919260008051602061255e8339815191529281900390910190a35050565b6001600160a01b038216612288576040805162461bcd60e51b8152602060048201819052602482015260008051602061257e833981519152604482015290519081900360640190fd5b600b5461229590826117ba565b600b556001600160a01b0382166000908152600e60205260409020546122bb90826117ba565b6001600160a01b0383166000818152600e602090815260408083209490945583518581529351929391926000805160206125c88339815191529281900390910190a35050565b6060610e1b84846000858561231585612427565b612366576040805162461bcd60e51b815260206004820152601d60248201527f416464726573733a2063616c6c20746f206e6f6e2d636f6e7472616374000000604482015290519081900360640190fd5b60006060866001600160a01b031685876040518082805190602001908083835b602083106123a55780518252601f199092019160209182019101612386565b6001836020036101000a03801982511681845116808217855250505050505090500191505060006040518083038185875af1925050503d8060008114612407576040519150601f19603f3d011682016040523d82523d6000602084013e61240c565b606091505b509150915061241c82828661242d565b979650505050505050565b3b151590565b6060831561243c575081611812565b82511561244c5782518084602001fd5b60405162461bcd60e51b8152602060048201818152845160248401528451859391928392604401919085019080838360008315611f91578181015183820152602001611f7956fe5265656e7472616e637947756172643a207265656e7472616e742063616c6c00476f7665726e61626c653a20666f7262696464656e00000000000000000000005665737465723a206275726e20616d6f756e7420657863656564732062616c616e63655665737465723a206275726e2066726f6d20746865207a65726f2061646472657373536166654d6174683a206d756c7469706c69636174696f6e206f766572666c6f775665737465723a206d6178207665737461626c6520616d6f756e74206578636565646564ddf252ad1be2c89b69c2b068fc378daa952ba7f163c4a11628f55a4df523b3ef5665737465723a206d696e7420746f20746865207a65726f20616464726573735361666545524332303a204552433230206f7065726174696f6e20646964206e6f742073756363656564659523c479d006050ebc0d0e48fea36d1b2c5d45b2f31402ac6f8671fc84cc04a26469706673582212206cbc28adb558299475af9f7c72f8e5b605ac0e9b370e9392da81fb8c2ddcdfc864736f6c634300060c0033",
  "linkReferences": {},
  "deployedLinkReferences": {}
}